:100000000C9453000C9412010C9412010C941201E4
:100010000C9412010C9412010C9412010C94120114
:100020000C9412010C9412010C9412010C94120104
:100030000C9412010C9412010C9412010C941201F4
:100040000C9412010C9412010C9412010C941201E4
:100050000C9412010C9412010C94F6000C941201F1
:100060000C9412010C9412010C9412010C941201C4
:100070000C9412010C9412010C9412010C941201B4
:100080000C9412010C9412010C9412010C941201A4
:100090000C9412010C9412010C9412010C94120194
:1000A00028002802800011241FBECFEFCDBFDFE360
:1000B000DEBFE0EAF0E040E017C0B591A5913591D0
:1000C0002591059107FD0CC095918591EF01F92FC0
:1000D000E82F05900D92A217B307D9F7FE0104C0CF
:1000E0001D92A217B307E1F7E53AF40731F70E9432
:0A00F0007D000C947B00F894FFCF14
:1000FA000E94DA00E0EEF5E084818160848384E086
:10010A0080932104E0E0FAE088E0808381818360C3
:10011A00818386E490E186AB97AB88E391E084AF74
:10012A0095AF818180648183808181608083E0E8EA
:10013A00F4E0808581608087E0E5F0E08081897F56
:10014A008083789481E080930806A0E0BAE040EDCD
:10015A0050E02CE231E0F894809100289091012837
:10016A0087319340C8F0DC964D935C93DD978FE31B
:10017A009DE063E0815090406040E1F700C00000DC
:10018A00DC962D933C93DD978AE299ED62E08150EB
:10019A0090406040E1F700C078948081816080835C
:0A01AA00889580818E7F8083D6CF78
:1001B400E0E8F4E08089887F808B80898460808B8C
:1001C4008089877F808BE0E0F6E083E0828381E0B2
:1001D400808388E08683A0EAB0E08C9180648C936D
:0801E400828581608287089585
:1001EC001F920F920FB60F9211248F939F93EF9340
:1001FC00FF93E0E0F6E0808991898093002890934A
:10020C00012881E08087FF91EF919F918F910F9052
:08021C000FBE0F901F90189512
:040224000C94000036
:00000001FF
